{
  "_format": "hh-sol-artifact-1",
  "contractName": "NFTMarketplace",
  "sourceName": "contracts/NFTMarketplace.sol",
  "abi": [
    {
      "inputs": [],
      "stateMutability": "nonpayable",
      "type": "constructor"
    },
    {
      "anonymous": false,
      "inputs": [
        {
          "indexed": true,
          "internalType": "address",
          "name": "owner",
          "type": "address"
        },
        {
          "indexed": true,
          "internalType": "address",
          "name": "approved",
          "type": "address"
        },
        {
          "indexed": true,
          "internalType": "uint256",
          "name": "tokenId",
          "type": "uint256"
        }
      ],
      "name": "Approval",
      "type": "event"
    },
    {
      "anonymous": false,
      "inputs": [
        {
          "indexed": true,
          "internalType": "address",
          "name": "owner",
          "type": "address"
        },
        {
          "indexed": true,
          "internalType": "address",
          "name": "operator",
          "type": "address"
        },
        {
          "indexed": false,
          "internalType": "bool",
          "name": "approved",
          "type": "bool"
        }
      ],
      "name": "ApprovalForAll",
      "type": "event"
    },
    {
      "anonymous": false,
      "inputs": [
        {
          "indexed": false,
          "internalType": "uint256",
          "name": "_fromTokenId",
          "type": "uint256"
        },
        {
          "indexed": false,
          "internalType": "uint256",
          "name": "_toTokenId",
          "type": "uint256"
        }
      ],
      "name": "BatchMetadataUpdate",
      "type": "event"
    },
    {
      "anonymous": false,
      "inputs": [
        {
          "indexed": false,
          "internalType": "uint256",
          "name": "_tokenId",
          "type": "uint256"
        }
      ],
      "name": "MetadataUpdate",
      "type": "event"
    },
    {
      "anonymous": false,
      "inputs": [
        {
          "indexed": true,
          "internalType": "address",
          "name": "from",
          "type": "address"
        },
        {
          "indexed": true,
          "internalType": "address",
          "name": "to",
          "type": "address"
        },
        {
          "indexed": true,
          "internalType": "uint256",
          "name": "tokenId",
          "type": "uint256"
        }
      ],
      "name": "Transfer",
      "type": "event"
    },
    {
      "inputs": [
        {
          "internalType": "address",
          "name": "to",
          "type": "address"
        },
        {
          "internalType": "uint256",
          "name": "tokenId",
          "type": "uint256"
        }
      ],
      "name": "approve",
      "outputs": [],
      "stateMutability": "nonpayable",
      "type": "function"
    },
    {
      "inputs": [
        {
          "internalType": "address",
          "name": "owner",
          "type": "address"
        }
      ],
      "name": "balanceOf",
      "outputs": [
        {
          "internalType": "uint256",
          "name": "",
          "type": "uint256"
        }
      ],
      "stateMutability": "view",
      "type": "function"
    },
    {
      "inputs": [
        {
          "internalType": "string",
          "name": "tokenURI",
          "type": "string"
        },
        {
          "internalType": "uint256",
          "name": "price",
          "type": "uint256"
        }
      ],
      "name": "createToken",
      "outputs": [
        {
          "internalType": "uint256",
          "name": "",
          "type": "uint256"
        }
      ],
      "stateMutability": "payable",
      "type": "function"
    },
    {
      "inputs": [
        {
          "internalType": "uint256",
          "name": "tokenId",
          "type": "uint256"
        }
      ],
      "name": "executeSale",
      "outputs": [],
      "stateMutability": "payable",
      "type": "function"
    },
    {
      "inputs": [],
      "name": "getAllNFTs",
      "outputs": [
        {
          "components": [
            {
              "internalType": "uint256",
              "name": "tokenId",
              "type": "uint256"
            },
            {
              "internalType": "address payable",
              "name": "owner",
              "type": "address"
            },
            {
              "internalType": "address payable",
              "name": "seller",
              "type": "address"
            },
            {
              "internalType": "uint256",
              "name": "price",
              "type": "uint256"
            },
            {
              "internalType": "bool",
              "name": "currentlylisted",
              "type": "bool"
            }
          ],
          "internalType": "struct NFTMarketplace.ListedToken[]",
          "name": "",
          "type": "tuple[]"
        }
      ],
      "stateMutability": "view",
      "type": "function"
    },
    {
      "inputs": [
        {
          "internalType": "uint256",
          "name": "tokenId",
          "type": "uint256"
        }
      ],
      "name": "getApproved",
      "outputs": [
        {
          "internalType": "address",
          "name": "",
          "type": "address"
        }
      ],
      "stateMutability": "view",
      "type": "function"
    },
    {
      "inputs": [],
      "name": "getCurrentToken",
      "outputs": [
        {
          "internalType": "uint256",
          "name": "",
          "type": "uint256"
        }
      ],
      "stateMutability": "view",
      "type": "function"
    },
    {
      "inputs": [],
      "name": "getLatestIdToListedToken",
      "outputs": [
        {
          "components": [
            {
              "internalType": "uint256",
              "name": "tokenId",
              "type": "uint256"
            },
            {
              "internalType": "address payable",
              "name": "owner",
              "type": "address"
            },
            {
              "internalType": "address payable",
              "name": "seller",
              "type": "address"
            },
            {
              "internalType": "uint256",
              "name": "price",
              "type": "uint256"
            },
            {
              "internalType": "bool",
              "name": "currentlylisted",
              "type": "bool"
            }
          ],
          "internalType": "struct NFTMarketplace.ListedToken",
          "name": "",
          "type": "tuple"
        }
      ],
      "stateMutability": "view",
      "type": "function"
    },
    {
      "inputs": [],
      "name": "getListPrice",
      "outputs": [
        {
          "internalType": "uint256",
          "name": "",
          "type": "uint256"
        }
      ],
      "stateMutability": "view",
      "type": "function"
    },
    {
      "inputs": [
        {
          "internalType": "uint256",
          "name": "tokenId",
          "type": "uint256"
        }
      ],
      "name": "getListedForTokenId",
      "outputs": [
        {
          "components": [
            {
              "internalType": "uint256",
              "name": "tokenId",
              "type": "uint256"
            },
            {
              "internalType": "address payable",
              "name": "owner",
              "type": "address"
            },
            {
              "internalType": "address payable",
              "name": "seller",
              "type": "address"
            },
            {
              "internalType": "uint256",
              "name": "price",
              "type": "uint256"
            },
            {
              "internalType": "bool",
              "name": "currentlylisted",
              "type": "bool"
            }
          ],
          "internalType": "struct NFTMarketplace.ListedToken",
          "name": "",
          "type": "tuple"
        }
      ],
      "stateMutability": "view",
      "type": "function"
    },
    {
      "inputs": [],
      "name": "getMyNFTs",
      "outputs": [
        {
          "components": [
            {
              "internalType": "uint256",
              "name": "tokenId",
              "type": "uint256"
            },
            {
              "internalType": "address payable",
              "name": "owner",
              "type": "address"
            },
            {
              "internalType": "address payable",
              "name": "seller",
              "type": "address"
            },
            {
              "internalType": "uint256",
              "name": "price",
              "type": "uint256"
            },
            {
              "internalType": "bool",
              "name": "currentlylisted",
              "type": "bool"
            }
          ],
          "internalType": "struct NFTMarketplace.ListedToken[]",
          "name": "",
          "type": "tuple[]"
        }
      ],
      "stateMutability": "view",
      "type": "function"
    },
    {
      "inputs": [
        {
          "internalType": "address",
          "name": "owner",
          "type": "address"
        },
        {
          "internalType": "address",
          "name": "operator",
          "type": "address"
        }
      ],
      "name": "isApprovedForAll",
      "outputs": [
        {
          "internalType": "bool",
          "name": "",
          "type": "bool"
        }
      ],
      "stateMutability": "view",
      "type": "function"
    },
    {
      "inputs": [],
      "name": "name",
      "outputs": [
        {
          "internalType": "string",
          "name": "",
          "type": "string"
        }
      ],
      "stateMutability": "view",
      "type": "function"
    },
    {
      "inputs": [
        {
          "internalType": "uint256",
          "name": "tokenId",
          "type": "uint256"
        }
      ],
      "name": "ownerOf",
      "outputs": [
        {
          "internalType": "address",
          "name": "",
          "type": "address"
        }
      ],
      "stateMutability": "view",
      "type": "function"
    },
    {
      "inputs": [
        {
          "internalType": "address",
          "name": "from",
          "type": "address"
        },
        {
          "internalType": "address",
          "name": "to",
          "type": "address"
        },
        {
          "internalType": "uint256",
          "name": "tokenId",
          "type": "uint256"
        }
      ],
      "name": "safeTransferFrom",
      "outputs": [],
      "stateMutability": "nonpayable",
      "type": "function"
    },
    {
      "inputs": [
        {
          "internalType": "address",
          "name": "from",
          "type": "address"
        },
        {
          "internalType": "address",
          "name": "to",
          "type": "address"
        },
        {
          "internalType": "uint256",
          "name": "tokenId",
          "type": "uint256"
        },
        {
          "internalType": "bytes",
          "name": "data",
          "type": "bytes"
        }
      ],
      "name": "safeTransferFrom",
      "outputs": [],
      "stateMutability": "nonpayable",
      "type": "function"
    },
    {
      "inputs": [
        {
          "internalType": "address",
          "name": "operator",
          "type": "address"
        },
        {
          "internalType": "bool",
          "name": "approved",
          "type": "bool"
        }
      ],
      "name": "setApprovalForAll",
      "outputs": [],
      "stateMutability": "nonpayable",
      "type": "function"
    },
    {
      "inputs": [
        {
          "internalType": "bytes4",
          "name": "interfaceId",
          "type": "bytes4"
        }
      ],
      "name": "supportsInterface",
      "outputs": [
        {
          "internalType": "bool",
          "name": "",
          "type": "bool"
        }
      ],
      "stateMutability": "view",
      "type": "function"
    },
    {
      "inputs": [],
      "name": "symbol",
      "outputs": [
        {
          "internalType": "string",
          "name": "",
          "type": "string"
        }
      ],
      "stateMutability": "view",
      "type": "function"
    },
    {
      "inputs": [
        {
          "internalType": "uint256",
          "name": "tokenId",
          "type": "uint256"
        }
      ],
      "name": "tokenURI",
      "outputs": [
        {
          "internalType": "string",
          "name": "",
          "type": "string"
        }
      ],
      "stateMutability": "view",
      "type": "function"
    },
    {
      "inputs": [
        {
          "internalType": "address",
          "name": "from",
          "type": "address"
        },
        {
          "internalType": "address",
          "name": "to",
          "type": "address"
        },
        {
          "internalType": "uint256",
          "name": "tokenId",
          "type": "uint256"
        }
      ],
      "name": "transferFrom",
      "outputs": [],
      "stateMutability": "nonpayable",
      "type": "function"
    },
    {
      "inputs": [
        {
          "internalType": "uint256",
          "name": "_listPrice",
          "type": "uint256"
        }
      ],
      "name": "updateListPrice",
      "outputs": [],
      "stateMutability": "payable",
      "type": "function"
    }
  ],
  "bytecode": "0x6080604052662386f26fc10000600b553480156200001c57600080fd5b50604080518082018252600e81526d4e46544d61726b6574706c61636560901b6020808301918252835180850190945260048452634e46544d60e01b9084015281519192916200006f91600091620000a0565b50805162000085906001906020840190620000a0565b5050600780546001600160a01b031916331790555062000183565b828054620000ae9062000146565b90600052602060002090601f016020900481019282620000d257600085556200011d565b82601f10620000ed57805160ff19168380011785556200011d565b828001600101855582156200011d579182015b828111156200011d57825182559160200191906001019062000100565b506200012b9291506200012f565b5090565b5b808211156200012b576000815560010162000130565b600181811c908216806200015b57607f821691505b602082108114156200017d57634e487b7160e01b600052602260045260246000fd5b50919050565b6120c580620001936000396000f3fe6080604052600436106101355760003560e01c806395d89b41116100ab578063c322579c1161006f578063c322579c14610354578063c87b56dd14610367578063d1a88ae514610387578063e0391b091461039c578063e985e9c5146103b1578063ef2d1746146103fa57600080fd5b806395d89b41146102bf57806398c3df16146102d45780639b1225c414610301578063a22cb46514610314578063b88d4fde1461033457600080fd5b806342842e0e116100fd57806342842e0e1461020b578063629cb2e41461022b5780636352211e1461024d57806368f1945f1461026d57806370a082311461028c57806372b3b620146102ac57600080fd5b806301ffc9a71461013a57806306fdde031461016f578063081812fc14610191578063095ea7b3146101c957806323b872dd146101eb575b600080fd5b34801561014657600080fd5b5061015a610155366004611ce2565b61040f565b60405190151581526020015b60405180910390f35b34801561017b57600080fd5b5061018461043a565b6040516101669190611eae565b34801561019d57600080fd5b506101b16101ac366004611d70565b6104cc565b6040516001600160a01b039091168152602001610166565b3480156101d557600080fd5b506101e96101e4366004611cb9565b6104f3565b005b3480156101f757600080fd5b506101e9610206366004611bcb565b61060e565b34801561021757600080fd5b506101e9610226366004611bcb565b61063f565b34801561023757600080fd5b5061024061065a565b6040516101669190611e60565b34801561025957600080fd5b506101b1610268366004611d70565b61089f565b34801561027957600080fd5b50600b545b604051908152602001610166565b34801561029857600080fd5b5061027e6102a7366004611b7f565b6108ff565b61027e6102ba366004611d1a565b610985565b3480156102cb57600080fd5b50610184610a73565b3480156102e057600080fd5b506102f46102ef366004611d70565b610a82565b6040516101669190611fa5565b6101e961030f366004611d70565b610aec565b34801561032057600080fd5b506101e961032f366004611c7f565b610c43565b34801561034057600080fd5b506101e961034f366004611c06565b610c52565b6101e9610362366004611d70565b610c8a565b34801561037357600080fd5b50610184610382366004611d70565b610cf9565b34801561039357600080fd5b506102f4610e0a565b3480156103a857600080fd5b50610240610e81565b3480156103bd57600080fd5b5061015a6103cc366004611b99565b6001600160a01b03918216600090815260056020908152604080832093909416825291909152205460ff1690565b34801561040657600080fd5b5061027e610fc8565b60006001600160e01b03198216632483248360e11b1480610434575061043482610fd8565b92915050565b60606000805461044990611ff7565b80601f016020809104026020016040519081016040528092919081815260200182805461047590611ff7565b80156104c25780601f10610497576101008083540402835291602001916104c2565b820191906000526020600020905b8154815290600101906020018083116104a557829003601f168201915b5050505050905090565b60006104d782611028565b506000908152600460205260409020546001600160a01b031690565b60006104fe8261089f565b9050806001600160a01b0316836001600160a01b031614156105715760405162461bcd60e51b815260206004820152602160248201527f4552433732313a20617070726f76616c20746f2063757272656e74206f776e656044820152603960f91b60648201526084015b60405180910390fd5b336001600160a01b038216148061058d575061058d81336103cc565b6105ff5760405162461bcd60e51b815260206004820152603d60248201527f4552433732313a20617070726f76652063616c6c6572206973206e6f7420746f60448201527f6b656e206f776e6572206f7220617070726f76656420666f7220616c6c0000006064820152608401610568565b610609838361108a565b505050565b61061833826110f8565b6106345760405162461bcd60e51b815260040161056890611ec1565b610609838383611176565b61060983838360405180602001604052806000815250610c52565b60606000610667600a5490565b905060008060005b838110156106ff5733600c6000610687846001611fb3565b81526020810191909152604001600020600101546001600160a01b031614806106da575033600c60006106bb846001611fb3565b81526020810191909152604001600020600201546001600160a01b0316145b156106ed576106ea600184611fb3565b92505b806106f781612032565b91505061066f565b5060008267ffffffffffffffff81111561072957634e487b7160e01b600052604160045260246000fd5b60405190808252806020026020018201604052801561076257816020015b61074f611a26565b8152602001906001900390816107475790505b50905060005b848110156108965733600c6000610780846001611fb3565b81526020810191909152604001600020600101546001600160a01b031614806107d3575033600c60006107b4846001611fb3565b81526020810191909152604001600020600201546001600160a01b0316145b156108845760006107e5826001611fb3565b6000818152600c6020908152604091829020825160a0810184528154815260018201546001600160a01b039081169382019390935260028201549092169282019290925260038201546060820152600482015460ff16151560808201528551929350909185908790811061086957634e487b7160e01b600052603260045260246000fd5b602090810291909101015261087f600186611fb3565b945050505b8061088e81612032565b915050610768565b50949350505050565b6000818152600260205260408120546001600160a01b0316806104345760405162461bcd60e51b8152602060048201526018602482015277115490cdcc8c4e881a5b9d985b1a59081d1bdad95b88125160421b6044820152606401610568565b60006001600160a01b0382166109695760405162461bcd60e51b815260206004820152602960248201527f4552433732313a2061646472657373207a65726f206973206e6f7420612076616044820152683634b21037bbb732b960b91b6064820152608401610568565b506001600160a01b031660009081526003602052604090205490565b6000600b5434146109d85760405162461bcd60e51b815260206004820152601960248201527f53656e6420656e6f75676820657468657220746f206c697374000000000000006044820152606401610568565b60008211610a335760405162461bcd60e51b815260206004820152602260248201527f4d616b652073757265207468652070726963652069736e2774206e6567617469604482015261766560f01b6064820152608401610568565b610a41600a80546001019055565b6000610a4c600a5490565b9050610a5833826112da565b610a6281856112f4565b610a6c81846113c6565b9392505050565b60606001805461044990611ff7565b610a8a611a26565b506000908152600c6020908152604091829020825160a0810184528154815260018201546001600160a01b03908116938201939093526002820154909216928201929092526003820154606082015260049091015460ff161515608082015290565b6000818152600c60205260409020600301543414610b725760405162461bcd60e51b815260206004820152603f60248201527f506c65617365207375626d6974207468652061736b696e67207072696365206660448201527f6f7220746865204e465420696e206f7264657220746f207075726368617365006064820152608401610568565b6000818152600c602052604090206002810180546004909201805460ff191660011790556001600160a01b03198216331790556001600160a01b0316610bbc600980546001019055565b610bc7303384611176565b610bd130836104f3565b600754600b546040516001600160a01b039092169181156108fc0291906000818181858888f19350505050158015610c0d573d6000803e3d6000fd5b506040516001600160a01b038216903480156108fc02916000818181858888f19350505050158015610609573d6000803e3d6000fd5b610c4e338383611463565b5050565b610c5c33836110f8565b610c785760405162461bcd60e51b815260040161056890611ec1565b610c8484848484611532565b50505050565b6007546001600160a01b03163314610cf45760405162461bcd60e51b815260206004820152602760248201527f4f6e6c79206f776e65722063616e2075706461746520746865206c697374696e6044820152666720707269636560c81b6064820152608401610568565b600b55565b6060610d0482611028565b60008281526006602052604081208054610d1d90611ff7565b80601f0160208091040260200160405190810160405280929190818152602001828054610d4990611ff7565b8015610d965780601f10610d6b57610100808354040283529160200191610d96565b820191906000526020600020905b815481529060010190602001808311610d7957829003601f168201915b505050505090506000610db460408051602081019091526000815290565b9050805160001415610dc7575092915050565b815115610df9578082604051602001610de1929190611df4565b60405160208183030381529060405292505050919050565b610e0284611565565b949350505050565b610e12611a26565b6000610e1d600a5490565b6000908152600c6020908152604091829020825160a0810184528154815260018201546001600160a01b03908116938201939093526002820154909216928201929092526003820154606082015260049091015460ff161515608082015292915050565b60606000610e8e600a5490565b905060008167ffffffffffffffff811115610eb957634e487b7160e01b600052604160045260246000fd5b604051908082528060200260200182016040528015610ef257816020015b610edf611a26565b815260200190600190039081610ed75790505b5090506000805b83811015610fbf576000610f0e826001611fb3565b6000818152600c6020908152604091829020825160a0810184528154815260018201546001600160a01b039081169382019390935260028201549092169282019290925260038201546060820152600482015460ff161515608082015286519293509091869086908110610f9257634e487b7160e01b600052603260045260246000fd5b6020908102919091010152610fa8600185611fb3565b935050508080610fb790612032565b915050610ef9565b50909392505050565b6000610fd3600a5490565b905090565b60006001600160e01b031982166380ac58cd60e01b148061100957506001600160e01b03198216635b5e139f60e01b145b8061043457506301ffc9a760e01b6001600160e01b0319831614610434565b6000818152600260205260409020546001600160a01b03166110875760405162461bcd60e51b8152602060048201526018602482015277115490cdcc8c4e881a5b9d985b1a59081d1bdad95b88125160421b6044820152606401610568565b50565b600081815260046020526040902080546001600160a01b0319166001600160a01b03841690811790915581906110bf8261089f565b6001600160a01b03167f8c5be1e5ebec7d5bd14f71427d1e84f3dd0314c0f7b2291e5b200ac8c7c3b92560405160405180910390a45050565b6000806111048361089f565b9050806001600160a01b0316846001600160a01b0316148061114b57506001600160a01b0380821660009081526005602090815260408083209388168352929052205460ff165b80610e025750836001600160a01b0316611164846104cc565b6001600160a01b031614949350505050565b826001600160a01b03166111898261089f565b6001600160a01b0316146111af5760405162461bcd60e51b815260040161056890611f60565b6001600160a01b0382166112115760405162461bcd60e51b8152602060048201526024808201527f4552433732313a207472616e7366657220746f20746865207a65726f206164646044820152637265737360e01b6064820152608401610568565b826001600160a01b03166112248261089f565b6001600160a01b03161461124a5760405162461bcd60e51b815260040161056890611f60565b600081815260046020908152604080832080546001600160a01b03199081169091556001600160a01b0387811680865260038552838620805460001901905590871680865283862080546001019055868652600290945282852080549092168417909155905184937fddf252ad1be2c89b69c2b068fc378daa952ba7f163c4a11628f55a4df523b3ef91a4505050565b610c4e8282604051806020016040528060008152506115d8565b6000828152600260205260409020546001600160a01b031661136f5760405162461bcd60e51b815260206004820152602e60248201527f45524337323155524953746f726167653a2055524920736574206f66206e6f6e60448201526d32bc34b9ba32b73a103a37b5b2b760911b6064820152608401610568565b6000828152600660209081526040909120825161138e92840190611a54565b506040518281527ff8e1a15aba9398e019f0b49df1a4fde98ee17ae345cb5f6b5e2c27f5033e8ce79060200160405180910390a15050565b6040805160a081018252838152306020808301828152338486018181526060860188815260016080880181815260008c8152600c9097529890952096518755925193860180546001600160a01b039586166001600160a01b03199182161790915590516002870180549190951691161790925551600384015592516004909201805492151560ff1990931692909217909155610c4e919084611176565b816001600160a01b0316836001600160a01b031614156114c55760405162461bcd60e51b815260206004820152601960248201527f4552433732313a20617070726f766520746f2063616c6c6572000000000000006044820152606401610568565b6001600160a01b03838116600081815260056020908152604080832094871680845294825291829020805460ff191686151590811790915591519182527f17307eab39ab6107e8899845ad3d59bd9653f200f220920489ca2b5937696c31910160405180910390a3505050565b61153d848484611176565b6115498484848461160b565b610c845760405162461bcd60e51b815260040161056890611f0e565b606061157082611028565b600061158760408051602081019091526000815290565b905060008151116115a75760405180602001604052806000815250610a6c565b806115b184611718565b6040516020016115c2929190611df4565b6040516020818303038152906040529392505050565b6115e283836117c3565b6115ef600084848461160b565b6106095760405162461bcd60e51b815260040161056890611f0e565b60006001600160a01b0384163b1561170d57604051630a85bd0160e11b81526001600160a01b0385169063150b7a029061164f903390899088908890600401611e23565b602060405180830381600087803b15801561166957600080fd5b505af1925050508015611699575060408051601f3d908101601f1916820190925261169691810190611cfe565b60015b6116f3573d8080156116c7576040519150601f19603f3d011682016040523d82523d6000602084013e6116cc565b606091505b5080516116eb5760405162461bcd60e51b815260040161056890611f0e565b805181602001fd5b6001600160e01b031916630a85bd0160e11b149050610e02565b506001949350505050565b606060006117258361194e565b600101905060008167ffffffffffffffff81111561175357634e487b7160e01b600052604160045260246000fd5b6040519080825280601f01601f19166020018201604052801561177d576020820181803683370190505b5090508181016020015b600019016f181899199a1a9b1b9c1cb0b131b232b360811b600a86061a8153600a85049450846117b6576117bb565b611787565b509392505050565b6001600160a01b0382166118195760405162461bcd60e51b815260206004820181905260248201527f4552433732313a206d696e7420746f20746865207a65726f20616464726573736044820152606401610568565b6000818152600260205260409020546001600160a01b03161561187e5760405162461bcd60e51b815260206004820152601c60248201527f4552433732313a20746f6b656e20616c7265616479206d696e746564000000006044820152606401610568565b6000818152600260205260409020546001600160a01b0316156118e35760405162461bcd60e51b815260206004820152601c60248201527f4552433732313a20746f6b656e20616c7265616479206d696e746564000000006044820152606401610568565b6001600160a01b038216600081815260036020908152604080832080546001019055848352600290915280822080546001600160a01b0319168417905551839291907fddf252ad1be2c89b69c2b068fc378daa952ba7f163c4a11628f55a4df523b3ef908290a45050565b60008072184f03e93ff9f4daa797ed6e38ed64bf6a1f0160401b831061198d5772184f03e93ff9f4daa797ed6e38ed64bf6a1f0160401b830492506040015b6d04ee2d6d415b85acef810000000083106119b9576d04ee2d6d415b85acef8100000000830492506020015b662386f26fc1000083106119d757662386f26fc10000830492506010015b6305f5e10083106119ef576305f5e100830492506008015b6127108310611a0357612710830492506004015b60648310611a15576064830492506002015b600a83106104345760010192915050565b6040805160a08101825260008082526020820181905291810182905260608101829052608081019190915290565b828054611a6090611ff7565b90600052602060002090601f016020900481019282611a825760008555611ac8565b82601f10611a9b57805160ff1916838001178555611ac8565b82800160010185558215611ac8579182015b82811115611ac8578251825591602001919060010190611aad565b50611ad4929150611ad8565b5090565b5b80821115611ad45760008155600101611ad9565b600067ffffffffffffffff80841115611b0857611b08612063565b604051601f8501601f19908116603f01168101908282118183101715611b3057611b30612063565b81604052809350858152868686011115611b4957600080fd5b858560208301376000602087830101525050509392505050565b80356001600160a01b0381168114611b7a57600080fd5b919050565b600060208284031215611b90578081fd5b610a6c82611b63565b60008060408385031215611bab578081fd5b611bb483611b63565b9150611bc260208401611b63565b90509250929050565b600080600060608486031215611bdf578081fd5b611be884611b63565b9250611bf660208501611b63565b9150604084013590509250925092565b60008060008060808587031215611c1b578081fd5b611c2485611b63565b9350611c3260208601611b63565b925060408501359150606085013567ffffffffffffffff811115611c54578182fd5b8501601f81018713611c64578182fd5b611c7387823560208401611aed565b91505092959194509250565b60008060408385031215611c91578182fd5b611c9a83611b63565b915060208301358015158114611cae578182fd5b809150509250929050565b60008060408385031215611ccb578182fd5b611cd483611b63565b946020939093013593505050565b600060208284031215611cf3578081fd5b8135610a6c81612079565b600060208284031215611d0f578081fd5b8151610a6c81612079565b60008060408385031215611d2c578182fd5b823567ffffffffffffffff811115611d42578283fd5b8301601f81018513611d52578283fd5b611d6185823560208401611aed565b95602094909401359450505050565b600060208284031215611d81578081fd5b5035919050565b60008151808452611da0816020860160208601611fcb565b601f01601f19169290920160200192915050565b805182526020808201516001600160a01b039081169184019190915260408083015190911690830152606080820151908301526080908101511515910152565b60008351611e06818460208801611fcb565b835190830190611e1a818360208801611fcb565b01949350505050565b6001600160a01b0385811682528416602082015260408101839052608060608201819052600090611e5690830184611d88565b9695505050505050565b6020808252825182820181905260009190848201906040850190845b81811015611ea257611e8f838551611db4565b9284019260a09290920191600101611e7c565b50909695505050505050565b602081526000610a6c6020830184611d88565b6020808252602d908201527f4552433732313a2063616c6c6572206973206e6f7420746f6b656e206f776e6560408201526c1c881bdc88185c1c1c9bdd9959609a1b606082015260800190565b60208082526032908201527f4552433732313a207472616e7366657220746f206e6f6e20455243373231526560408201527131b2b4bb32b91034b6b83632b6b2b73a32b960711b606082015260800190565b60208082526025908201527f4552433732313a207472616e736665722066726f6d20696e636f72726563742060408201526437bbb732b960d91b606082015260800190565b60a081016104348284611db4565b60008219821115611fc657611fc661204d565b500190565b60005b83811015611fe6578181015183820152602001611fce565b83811115610c845750506000910152565b600181811c9082168061200b57607f821691505b6020821081141561202c57634e487b7160e01b600052602260045260246000fd5b50919050565b60006000198214156120465761204661204d565b5060010190565b634e487b7160e01b600052601160045260246000fd5b634e487b7160e01b600052604160045260246000fd5b6001600160e01b03198116811461108757600080fdfea264697066735822122070c07523681c77e71eef7dd544da6fe575429ef78464ff1bb5432e0fa53163ac64736f6c63430008040033",
  "linkReferences": {},
  "deployedLinkReferences": {}
}